:020000020000FC
:100000000FE50DBF04E00EBFA09AA19AA29AA39A91
:10001000A49AA59A899A889A8A9A8B9A8C9A0E940D
:100020007F0000E32FD00E947F0000E32BD00E94CE
:100030007F0000E327D00E947F0008E323D00E94C6
:1000400073000FE01FD00E94730001E01BD00E94DC
:10005000730006E017D00E947F0006E41BD00DE37A
:1000600019D001E317D004E315D000E313D000E367
:1000700011D000E30FD00DE40DD008E40BD00AE757
:1000800009D0FFCFA898AA9A0E945200AA980E946D
:1000900073000895A89AAA9A0E945200AA980E94F2
:1000A0007300089500FDAB9A00FFAB9801FDAC9A78
:1000B00001FFAC9802FDAD9A02FFAD9803FD919A45
:1000C00003FF919804FD909A04FF909805FD929A81
:1000D00005FF929806FD939A06FF939807FD949A60
:1000E00007FF9498089530E022E010E80E94850010
:1000F000089530E020E011EF0E948500089530E07F
:100100002AEF10E00E9485000895115020403040F1
:04011000E0F7089577
:00000001FF
