:020000020000FC
:100000000FE50DBF04E00EBFA09AA19AA29AA39A91
:10001000889A899A8A9A8B9AA49AA59AAC98AD984C
:100020000E94480000E20E94760008E40E947600E8
:1000300005E60E9476000CE60E9476000CE60E941F
:1000400076000FE60E9476000CE20E94760000E245
:100050000E94760007E70E9476000FE60E94760075
:1000600002E70E9476000CE60E94760004E60E94F9
:10007000760001E20E94760000E30E94760002E032
:100080000E946A0045E565D0C19A63D0C198FBCF54
:100090000E94AF0000E30E946A000E94A30000E3F8
:1000A0000E946A000E94A30000E30E946A000E946E
:1000B000A30008E30E946A000E94A3000FE00E94D0
:1000C0006A0001E00E946A000E94AF0006E00E9400
:1000D0006A000895AC98AD9A0E94A3000E94820025
:1000E0000E94A300AD980E94A3000895AC9AAD9A17
:1000F0000E94A3000E9482000E94A300AD980E946B
:10010000A300089500FDA89A00FFA89801FDA99AF0
:1001100001FFA99802FDAA9A02FFAA9803FDAB9AD3
:1001200003FFAB9804FD909A04FF909805FD919A07
:1001300005FF919806FD929A06FF929807FD939A03
:1001400007FF9398089530E022E010E80E94B50080
:10015000089530E020E011EF0E94B500089530E0EE
:100160002AEF10E00E94B500089511502040304061
:04017000E0F7089517
:00000001FF
