:020000020000FC
:1000000000C00FE50DBF04E00EBF01D0FFCFA89ADE
:10001000A99AA898A9984CD003E01AD049D002E038
:1000200017D00CE015D044D002E012D00CE010D074
:100030003FD000E00DD00FE00BD03AD000E008D068
:1000400001E006D035D000E003D007E001D00895EC
:10005000AA9A909A23D007FDA89A07FFA89806FDB0
:10006000A99A06FFA9981AD003FD929A03FF9298C5
:1000700002FDAD9A02FFAD9801FDAC9A01FFAC986C
:1000800000FDAB9A00FFAB9809D0AA98909806D0D3
:100090000895115020403040E0F7089530E022E00C
:1000A00010E8F7DF089530E020E011EFF2DF089567
:0A00B00030E02AEF10E0EDDF0895C4
:00000001FF
